:03000000020546B0
:0C054600787FE4F6D8FD7581160204BD34
:040537007F057E00BE
:0B053B00EF1FAC0670011E4C70F62292
:10051900D3EF9400EE940040147D587C02ED1D70D9
:0D052900011CED4C70F7EF1F70E61E80E323
:0105360022A2
:1004EC00E4FB53070775C56000EF42C50043C580A8
:1004FC007F017E00B11943C50800000000EB7007B6
:0C050C00E5C55410FB80F653C5E7AFC6F0
:0105180022C0
:1003A4007F0691EC7508008F097F0791EC750A00B0
:1003B4008F0BAC08AD09E431AEE4FBFA7920784048
:1003C4001103C004C005C006C007AC0AAD0BE4317C
:1003D400AEA804A905AA06AB07D007D006D005D05D
:1003E40004310CE4FBFA79467843110331E78E0CAF
:1003F4008F0D850C13850D147C037DE851688F11D6
:10040400AE0CAF0D7C037DE851688C0C8D0DAE0CE9
:10041400AF0D7C007D6451688F10AE0CAF0D7C0075
:100424007D6451688C0C8D0DAE0CAF0D7C007D0A83
:1004340051688F0FAE0CAF0D7C007D0A51688D0E94
:010444002295
:10044500D3E51494E7E5139403400C75110A751070
:100455000A750F0A750E0AE511700375110BAF11B8
:100465001202CBD2B0120537C2B07F1E7E00B13B5F
:10047500AF101202CBD290120537C2907F1E7E00BC
:10048500B13B7F0C7E0051D0D2907F017E00B13B05
:10049500C2907F907E01B13BAF0F51CBD293B13764
:1004A500C2937F1E7E00B13BAF0E51CBD294B137C4
:0804B500C2947F1E7E00A13BF2
:0502CB00EF3395E0FE99
:1002D000EE600261A3EFB40D00400261A39002E35F
:1002E00025E07341FD61056109611561236131619B
:1002F0003F614D61556163617461826193C291C2D6
:1003000095C2B28075D2918046C291C295D2B2C2D6
:10031000B4C2B5800AC291C295C2B2C2B4D2B5D23B
:1003200092804CD291C295C2B2D2B4D2B5C2928060
:100330003EC291D295C2B2C2B4D2B5C2928030C28E
:1003400091D295C2B2C2B4C2B5C2928022C291C249
:1003500095C2B28033C291C295C2B2C2B4C2B5C214
:1003600092800CC291C295C2B2C2B4D2B5C292C23E
:10037000B1D2B322C291D295D2B2C2B4C2B5C292A6
:10038000800CD291D295D2B2D2B4D2B5D292D2B19F
:10039000D2B322D291D295D2B2D2B4D2B5D292D225
:0403A000B1C2B32211
:1004BD007591C0759219E4F5B175B201C294C293EC
:0404CD00C290C2B067
:1004D1000516E51670020515B4F40CE515B401070F
:0904E10071A4E4F515F51691452E
:0204EA0080E5AB
:10000300EC4D6011E8497017ED33EC3304600DE4F7
:10001300FCFFFEFD22E933E8330470F802025312B9
:10002300021E58046009E4CC2481500628500902BA
:10003300025D28400302025AC0E0EB4A7044B980D3
:1000430006D0E0FB020249EF4E701CBD8008EBFFB7
:10005300EAFEE9FD80EBE98DF0A4FEE5F00200EC99
:10006300E9CDF9EAFEEBFFEF89F0A4FCE5F0CE89D8
:10007300F0A42EFFE435F0CD89F0A42DFEE435F095
:100083008067EF4E7005BD80D780C3EF8BF0A4ACC3
:10009300F0EE8BF0A42CFCE435F0F8EF8AF0A42CFE
:1000A300E5F038FCE433CB8DF0A42CFCE5F03BF811
:1000B300EE8AF0A42CFCE5F038F8E433CF89F0A401
:1000C3002CFCE5F038CF3400CE89F0A42FFFE5F007
:1000D3003EFEE433C98DF0A42EFEE5F039CD8AF05F
:1000E300A42FFFE5F03EFEE43DFD33D0E0FB5007D7
:1000F3000BBB000F02025DEC2CFCEF33FFEE33FE73
:06010300ED33FD020235A0
:1001090002025DEC5D046005E859047003020253C4
:1001190012021E580460F6EC4860F2EC7004FDFE11
:10012900FF22C860DB2481C85009C39860025006C9
:1001390002025A9850CAF582E9294B4A7005AB82E6
:1001490002024975F0007C1A7880C3EF9BEE9AEDA4
:1001590099400DC3EF9BFFEE9AFEED99FDE842F041
:10016900DC23ACF0D0E0FFD0E0FED0E0FDAB822094
:10017900E7101BEB60BAEC2CFCEF33FFEE33FEED1E
:1001890033FD020235E803F830E705C0F075F000E9
:10019900EF2FFFEE33FEED33FD40B830E7C280AA02
:1001A90075F020800E75F010800575F0087D007ED1
:1001B900007F003392D530D5031202BDEC334010D5
:1001C900EF33FFEE33FEED33FDEC33FCD5F0ED22DA
:0E01D900E5F0247EA2D513CC92E7CDCEFF2216
:1001E700EDD2E7CD33EC3392D524814006E4FFFE10
:1001F700FDFC22FCE4CFCECDCC24E0501174FF806F
:10020700EDC3CC13CCCD13CDCE13CECF13CF04700B
:07021700F030D5DE0202BD4C
:10021E00E9D2E7C933E833F892D5EDD2E7CD33EC26
:07022E0033FC5002B2D5229F
:10023500EC30E7100FBF000C0EBE00080DBD00042A
:100245000BEB6014A2D5EB13FCED92E7FD2274FFD6
:10025500FCFDFEFF22E480F8A2D574FF13FC7D802F
:03026500E480EF43
:10026800BC000BBE0029EF8DF084FFADF022E4CC7A
:10027800F875F008EF2FFFEE33FEEC33FCEE9DEC43
:10028800984005FCEE9DFE0FD5F0E9E4CEFD22ED89
:10029800F8F5F0EE8420D21CFEADF075F008EF2FD3
:1002A800FFED33FD4007985006D5F0F222C398FDC4
:0502B8000FD5F0EA2261
:0E02BD00C3E49FFFE49EFEE49DFDE49CFC2252
:00000001FF
